:100000000C9434000C943E000C943E000C943E0082
:100010000C943E000C943E000C943E000C943E0068
:100020000C943E000C943E000C943E000C943E0058
:100030000C943E000C943E000C943E000C943E0048
:100040000C943E000C943E000C943E000C943E0038
:100050000C943E000C943E000C943E000C943E0028
:100060000C943E000C943E0011241FBECFEFD8E04C
:10007000DEBFCDBF0E9462000C946E000C940000A5
:10008000ECE7F0E0808180668083EAE7F0E0808141
:100090008768808387B18E7F87B980818064808301
:1000A00080917A0086FDFCCF8091790090E00895E0
:1000B00084B5836884BD85B5816085BD8AB180645F
:1000C0008AB908950E9458000E94400087BD8FE8B9
:1000D00091E00197F1F700C00000F6CFF894FFCF50
:00000001FF
