:100000000C9434000C943E000C943E000C943E0082
:100010000C943E000C943E000C943E000C943E0068
:100020000C943E000C943E000C943E000C943E0058
:100030000C943E000C943E000C943E000C943E0048
:100040000C943E000C943E000C943E000C943E0038
:100050000C943E000C943E000C943E000C943E0028
:100060000C943E000C943E0011241FBECFEFD8E04C
:10007000DEBFCDBF0E9440000C9461000C940000D4
:10008000ECE7F0E0808180668083EAE7F0E0808141
:100090008768808387B18E7F87B98FEF84B9EAE75D
:1000A000F0E0808180648083808380917A0086FD87
:1000B000FCCF8091790085B986EA8A95F1F700C076
:0600C000EECFF894FFCF23
:00000001FF
